:100000000C9462000C948A000C948A000C948A0070
:100010000C948A000C948A000C948A000C948A0038
:100020000C948A000C948A000C948A000C948A0028
:100030000C948A000C948A000C948A000C948A0018
:100040000C944E040C948A000C948A000C948A0040
:100050000C948A000C948A000C948A000C948A00F8
:100060000C948A000C948A000000000024002700F1
:100070002A0000000000250028002B0000000008D6
:10008000000201000003040700000000000000005F
:1000900000000000230026002900040404040404D6
:1000A0000404020202020202030303030303010227
:1000B00004081020408001020408102001020408F6
:1000C0001020E80611241FBECFEFD8E0DEBFCDBF61
:1000D00011E0A0E0B1E0E8EDF2E102C005900D9280
:1000E000A035B107D9F721E0A0E5B1E001C01D922C
:1000F000A138B207E1F710E0C2E6D0E004C02197D2
:10010000FE010E946409C136D107C9F70E94DD04CF
:100110000C946A090C940000AF92BF92CF92DF92C8
:10012000EF92FF920F931F93CF93DF936C017B01AC
:100130008B01040F151FEB015E01AE18BF08C0173D
:10014000D10759F06991D601ED91FC910190F081B0
:10015000E02DC6010995892B79F7C501DF91CF9173
:100160001F910F91FF90EF90DF90CF90BF90AF90D5
:100170000895833081F028F4813099F08230A9F01D
:1001800008958730A9F08830C9F08430B1F48091A7
:1001900080008F7D03C0809180008F7780938000E6
:1001A000089584B58F7784BD089584B58F7DFBCF86
:1001B0008091B0008F778093B00008958091B00057
:1001C0008F7DF9CFCF93DF93282F30E0F901E458EA
:1001D000FF4F8491F901E255FF4FD491F901E656A2
:1001E000FF4FC491CC23A1F081110E94B900EC2FE4
:1001F000F0E0EE0FFF1FE057FF4FA591B491EC9197
:10020000ED2381E090E009F480E0DF91CF91089543
:1002100080E090E0FACF1F93CF93DF93282F30E058
:10022000F901E458FF4F8491F901E255FF4FD49151
:10023000F901E656FF4FC491CC23A9F0162F811186
:100240000E94B900EC2FF0E0EE0FFF1FEE58FF4FB9
:10025000A591B4918FB7F894EC91111108C0D09585
:10026000DE23DC938FBFDF91CF911F910895DE2BAA
:10027000F8CFCF93DF9390E0FC01E255FF4F24913C
:1002800086569F4FFC0184918823D1F090E0880F1F
:10029000991FFC01E859FF4FA591B491FC01EE585C
:1002A000FF4FC591D49161110EC09FB7F8948C9106
:1002B000E22FE0958E238C932881E223E8839FBF71
:1002C000DF91CF9108958FB7F894EC91E22BEC93E6
:1002D0008FBFF6CF3FB7F8948091550190915601AA
:1002E000A0915701B091580126B5A89B05C02F3F9A
:1002F00019F00196A11DB11D3FBFBA2FA92F982F4C
:100300008827BC01CD01620F711D811D911D42E046
:10031000660F771F881F991F4A95D1F708958F920E
:100320009F92AF92BF92CF92DF92EF92FF924B01DA
:100330005C010E946A016B017C010E946A016C19D8
:100340007D098E099F09683E734081059105A8F3D8
:1003500021E0821A9108A108B10888EEC80E83E056
:10036000D81EE11CF11C81149104A104B10429F7E9
:10037000FF90EF90DF90CF90BF90AF909F908F90C5
:100380000895089590E080E00895FC010190002018
:10039000E9F73197AF01481B590BBC0189E691E0A1
:1003A0000C948C008F929F92AF92BF920F931F93E9
:1003B000CF93DF93CDB7DEB7A1970FB6F894DEBF2A
:1003C0000FBECDBF19A2423008F44AE08E010F5D86
:1003D0001F4F842E912CB12CA12CA50194010E94B9
:1003E0004209E62FB901CA01EA30F4F4E05DD80110
:1003F000EE938D01232B242B252B79F790E080E0C1
:10040000109719F0CD010E94C501A1960FB6F8947E
:10041000DEBF0FBECDBFDF91CF911F910F91BF9077
:10042000AF909F908F900895E95CE1CFCF93DF93D9
:10043000EC0160E08E810E940B0161E08E810E94E0
:100440000B0160E08E810E940B018BE891E0019727
:10045000F1F7DF91CF910895CF92DF92EF92FF9263
:100460000F931F93CF93DF936C017C0187E0E80E1D
:10047000F11CD0E0C0E0062F10E0B8010C2E02C045
:10048000759567950A94E2F76170F70181917F0194
:100490000E940B012196C430D10579F7C601DF9186
:1004A000CF911F910F91FF90EF90DF90CF900C9420
:1004B0001602CF92DF92EF92FF920F931F93CF938A
:1004C000DF93EC01F62E642F8C810E940B018D814D
:1004D0008F3F19F060E00E940B010F2D10E08F8517
:1004E00084FF25C06E0187E0C80ED11CF12CE12CE1
:1004F000B8010E2C02C0759567950A94E2F76170F9
:10050000F60181916F010E940B01FFEFEF1AFF0AC4
:1005100088E0E816F10461F7CE01DF91CF911F91D9
:100520000F91FF90EF90DF90CF900C941602B801DE
:1005300084E0759567958A95E1F7CE010E942C02BB
:100540006F2DCE01DF91CF911F910F91FF90EF9012
:10055000DF90CF900C942C0240E0682F89E691E068
:100560000C94590281E00E94AC028BE39FE1019759
:10057000F1F70895CF93DF93823029F490917801B9
:1005800098609093780180937C0110927D0180E4C3
:1005900080937E0180E180937F0180E580938001DC
:1005A00061E080916D010E94390180916E018F3F61
:1005B00019F061E00E94390161E080916F010E94B1
:1005C0003901C9E6D1E09E01295631408091780178
:1005D00084FD0BC084E090E021962817390744F48D
:1005E00061E08E810E943901EECF88E090E0F4CF87
:1005F0008BE39DE00197F1F760E080916D010E942F
:100600000B0160E080916F010E940B0180916E01EF
:100610008F3F19F060E00E940B018091780184FD0A
:1006200034C063E089E691E00E942C02CBE4D6E47A
:10063000CE010197F1F763E089E691E00E942C0278
:100640002197F1F763E089E691E00E942C0283E5AF
:1006500092E00197F1F762E089E691E00E942C02B6
:100660008091780180620E94AC0284E080937901DD
:100670008CE00E94AC020E94B20282E080937A0178
:1006800086E0DF91CF910C94AC0280620E94AC02B4
:100690008BE496E40197F1F78091780180620E94E3
:1006A000AC0283E592E00197F1F7809178018062D6
:1006B0000E94AC02D5CF90917C01691710F06FEFCA
:1006C000690FE62FF0E0E759FE4F9489890F8068A3
:1006D0000C94AC0241E00E94590281E090E0089540
:1006E0004F925F926F927F928F929F92AF92BF9242
:1006F000CF92DF92EF92FF920F931F93CF936B01F4
:100700007C01742EAC019B010E943D09882399F065
:100710008CE091E0CF911F910F91FF90EF90DF90CF
:10072000CF90BF90AF909F908F907F906F905F9091
:100730004F900C94C50146015701E894B7F82FEF8C
:100740003FEF4FE75FE7C501B4010E943D0981110A
:100750000DC02FEF3FEF4FE75FE7C501B4010E94E7
:10076000730718161CF480E191E0D4CF2FEF3FEF10
:100770004FE75FE4C701B6010E94CB0818161CF4CE
:1007800084E191E0C7CF2FEF3FEF4FE75FECC70168
:10079000B6010E94730787FDF3CF20E030E0A90186
:1007A000C701B6010E94730710E000E087FF0CC08C
:1007B00041E06DE289E691E00E945902F7FAF09477
:1007C000F7F8F09401E010E0C0E060E070E080E055
:1007D0009FE37C1641F020E030E040E251E40E94CB
:1007E0007807CF5FF6CFA70196010E9407074B015C
:1007F0005C010E94EA072B013C014AE00E94D20101
:10080000080F191FCC23C9F1C301B2010E941908B6
:100810009B01AC01C501B4010E9406074B015C01BC
:1008200041E06EE289E691E00E9459020F5F1F4F9E
:10083000C15018F120E030E040E251E4C501B401BC
:100840000E94D0082B013C010E94EA074B01B12C09
:10085000A12C4AE0C501B4010E94D201080F191F62
:10086000C501B4010E9419089B01AC01C301B2018A
:100870000E9406074B015C01DBCFC801CF911F919D
:100880000F91FF90EF90DF90CF90BF90AF909F902F
:100890008F907F906F905F904F9008951F920F926E
:1008A0000FB60F9211242F933F938F939F93AF9383
:1008B000BF938091510190915201A0915301B09149
:1008C00054013091500123E0230F2D3758F5019644
:1008D000A11DB11D209350018093510190935201AD
:1008E000A0935301B093540180915501909156010A
:1008F000A0915701B09158010196A11DB11D80939F
:10090000550190935601A0935701B0935801BF91A0
:10091000AF919F918F913F912F910F900FBE0F90AC
:100920001F90189526E8230F0296A11DB11DD2CF66
:10093000CF92DF92EF92FF920F931F93E82FF92F40
:1009400005C0015011092109310961F190819623F7
:100950009417B9F305C0015011092109310911F1AA
:10096000908196239413F7CFC12CD12CE12CF12C3C
:100970000AC08FEFC81AD80AE80AF80A0C151D0534
:100980002E053F0579F080818623841791F36C2D25
:100990007D2D8E2D9F2D1F910F91FF90EF90DF9059
:1009A000CF90089560E070E080E090E01F910F919B
:1009B000FF90EF90DF90CF900895789484B5826097
:1009C00084BD84B5816084BD85B5826085BD85B5F3
:1009D000816085BD80916E00816080936E00109271
:1009E00081008091810082608093810080918100EC
:1009F000816080938100809180008160809380007D
:100A00008091B10084608093B1008091B0008160DA
:100A10008093B00080917A00846080937A00809106
:100A20007A00826080937A0080917A00816080935E
:100A30007A0080917A00806880937A001092C100D9
:100A400082E00E94BA0264EF71E080E090E00E94D0
:100A50008F0188E191E00E94C50161E080E00E9481
:100A60005B0389E291E00E94C50160E089E00E9499
:100A7000390161E088E00E94390160E083E00E9472
:100A8000390160E084E00E94390160E086E00E9464
:100A9000390168EE73E080E090E00E948F019BE8EE
:100AA000E92EFF24F39427EBC22E20E0D22E33EA66
:100AB000A32E30E0B32EC0E0D0E083E00E94E2003D
:100AC0003C01909368018093670183E00E94E200FB
:100AD000892BD9F384E00E94E20090936601809311
:100AE000650184E00E94E200892BD9F386E00E9430
:100AF000E200909364018093630186E00E94E2002B
:100B0000892BD9F3672809F0B8C061E088E00E941A
:100B10000B0165E070E080E090E00E948F0160E0F2
:100B200088E00E940B01C7010197F1F7F60164917B
:100B3000F5018491E82FF0E0EE0FFF1FE057FF4F23
:100B40008591949108E813E120E030E0462F0E945F
:100B50009804611571058105910529F06F5F7F4F3C
:100B60008F4F9F4F9F700E9419082B013C012DEC65
:100B70003CEC4CEC5DE30E94CB0818160CF042C034
:100B8000A3019201C301B2010E9407079B01AC01BE
:100B900060E074E284E799E40E9478072B013C014D
:100BA0002DEB37E346E056E30E94D008A301920103
:100BB0000E94D00820E030E040E850E40E94D008D5
:100BC00020ED3FE049E450E40E94D00820ED3FE0F2
:100BD00049E450E40E94D0089B01AC0160E070E061
:100BE00080E89FE30E94780720E034E244E759E47C
:100BF0000E94D0086093590170935A0180935B0161
:100C000090935C010E94B20260E080E00E945B036E
:100C10008AE391E00E94C50161E080E00E945B03ED
:100C20006091590170915A0180915B0190915C0132
:100C300042E00E94700361E08EE00E945B0386E464
:100C400091E00E94C50164E670E080E090E00E94BF
:100C50008F018091590190915A01A0915B01B0914F
:100C60005C0180935D0190935E01A0935F01B0935E
:100C70006001109262011092610180916501909172
:100C80006601892B61F51092620110926101109248
:100C90005D0110925E0110925F011092600110924E
:100CA000590110925A0110925B0110925C010E944E
:100CB000B20260E080E00E945B0388E191E00E9464
:100CC000C50161E080E00E945B0389E291E00E943F
:100CD000C50164E670E080E090E00E948F018091A1
:100CE000630190916401892B09F06CC080916101CE
:100CF0009091620101969093620180936101039744
:100D00000CF060C020E030E04AE754E460915D01FF
:100D100070915E0180915F01909160010E9478075F
:100D200060935D0170935E0180935F019093600119
:100D30000E94B20260E080E00E945B038AE391E0DF
:100D40000E94C50180916101909162010197B9F4FF
:100D500061E080E00E945B0360915D0170915E0143
:100D600080915F019091600142E00E94700361E018
:100D70008EE00E945B0389E491E00E94C5018091AE
:100D80006101909162010297B9F461E080E00E94F4
:100D90005B0360915D0170915E0180915F019091B4
:100DA000600144E00E94700361E08EE00E945B03FA
:100DB0008CE491E00E94C50164E670E080E090E080
:100DC0000E948F01209709F478CE0E94000075CE12
:100DD000E9E6F1E01382128284E091E0918380835E
:100DE0008EE084838FEF85838FE0868380E1878325
:100DF00081E1808782E1818783E18287138614867F
:100E000015861686178681E00C94BA025058BB27C7
:100E1000AA270E941E070C9491080E94830838F0AC
:100E20000E948A0820F039F49F3F19F426F40C94AC
:100E300080080EF4E095E7FB0C947A08E92F0E94F5
:100E4000A20858F3BA17620773078407950720F0C2
:100E500079F4A6F50C94C4080EF4E0950B2EBA2F85
:100E6000A02D0B01B90190010C01CA01A0011124B0
:100E7000FF27591B99F0593F50F4503E68F11A165C
:100E8000F040A22F232F342F4427585FF3CF4695ED
:100E900037952795A795F0405395C9F77EF41F160F
:100EA000BA0B620B730B840BBAF09150A1F0FF0FD9
:100EB000BB1F661F771F881FC2F70EC0BA0F621FC5
:100EC000731F841F48F4879577956795B795F795B5
:100ED0009E3F08F0B0CF9395880F08F09927EE0F4A
:100EE0009795879508950E94560808F481E0089523
:100EF0000E948C070C9491080E948A0858F00E9466
:100F0000830840F029F45F3F29F00C947A085111CE
:100F10000C94C5080C9480080E94A20868F39923D9
:100F2000B1F3552391F3951B550BBB27AA276217E5
:100F30007307840738F09F5F5F4F220F331F441FF2
:100F4000AA1FA9F335D00E2E3AF0E0E832D0915026
:100F50005040E695001CCAF72BD0FE2F29D0660F13
:100F6000771F881FBB1F261737074807AB07B0E856
:100F700009F0BB0B802DBF01FF2793585F4F3AF05C
:100F80009E3F510578F00C947A080C94C5085F3F99
:100F9000E4F3983ED4F3869577956795B795F795E2
:100FA0009F5FC9F7880F911D9695879597F90895CA
:100FB000E1E0660F771F881FBB1F62177307840766
:100FC000BA0720F0621B730B840BBA0BEE1F88F775
:100FD000E09508950E94AA0888F09F5798F0B92FCD
:100FE0009927B751B0F0E1F0660F771F881F991F5E
:100FF0001AF0BA95C9F714C0B13091F00E94C40834
:10100000B1E008950C94C408672F782F8827B85F43
:1010100039F0B93FCCF3869577956795B395D9F7B5
:101020003EF490958095709561957F4F8F4F9F4FBF
:101030000895E89409C097FB3EF4909580957095CB
:1010400061957F4F8F4F9F4F9923A9F0F92F96E914
:10105000BB279395F695879577956795B795F11189
:10106000F8CFFAF4BB0F11F460FF1BC06F5F7F4F26
:101070008F4F9F4F16C0882311F096E911C0772338
:1010800021F09EE8872F762F05C0662371F096E841
:10109000862F70E060E02AF09A95660F771F881F10
:1010A000DAF7880F9695879597F90895990F0008B4
:1010B000550FAA0BE0E8FEEF16161706E807F9072A
:1010C000C0F012161306E407F50798F0621B730BC5
:1010D000840B950B39F40A2661F0232B242B252B46
:1010E00021F408950A2609F4A140A6958FEF811DE9
:1010F000811D089597F99F6780E870E060E008958A
:101100009FEF80EC089500240A941616170618061F
:101110000906089500240A941216130614060506FB
:101120000895092E0394000C11F4882352F0BB0F8C
:1011300040F4BF2B11F460FF04C06F5F7F4F8F4FEF
:101140009F4F089557FD9058440F551F59F05F3F2A
:1011500071F04795880F97FB991F61F09F3F79F0D9
:1011600087950895121613061406551FF2CF46955B
:10117000F1DF08C0161617061806991FF1CF8695DD
:101180007105610508940895E894BB2766277727C1
:10119000CB0197F908950E94560808F48FEF08953F
:1011A0000E94E3080C9491080E94830838F00E9482
:1011B0008A0820F0952311F00C947A080C9480088A
:1011C00011240C94C5080E94A20870F3959FC1F3E6
:1011D000950F50E0551F629FF001729FBB27F00DE5
:1011E000B11D639FAA27F00DB11DAA1F649F66273A
:1011F000B00DA11D661F829F2227B00DA11D621F89
:10120000739FB00DA11D621F839FA00D611D221F42
:10121000749F3327A00D611D231F849F600D211D26
:10122000822F762F6A2F11249F5750409AF0F1F0A9
:1012300088234AF0EE0FFF1FBB1F661F771F881F12
:1012400091505040A9F79E3F510580F00C947A08C8
:101250000C94C5085F3FE4F3983ED4F386957795E8
:101260006795B795F795E7959F5FC1F7FE2B880FB8
:10127000911D9695879597F908950E945608880BB9
:10128000990B0895A1E21A2EAA1BBB1BFD010DC0EC
:10129000AA1FBB1FEE1FFF1FA217B307E407F50726
:1012A00020F0A21BB30BE40BF50B661F771F881F02
:1012B000991F1A9469F760957095809590959B0198
:1012C000AC01BD01CF010895EE0FFF1F0590F49111
:0812D000E02D0994F894FFCF12
:1012D800000000006A038C00C201C1016E616E004B
:1012E800696E66006F766600496E64756374616E38
:1012F8006365204D65746572005265616479205498
:101308006F204D65617375726500496E647563740D
:10131800616E63653A007548006D4800204800001A
:107E0000112484B714BE81FFF0D085E080938100F7
:107E100082E08093C00088E18093C10086E0809377
:107E2000C20080E18093C4008EE0C9D0259A86E02C
:107E300020E33CEF91E0309385002093840096BBD3
:107E4000B09BFECF1D9AA8958150A9F7CC24DD24C4
:107E500088248394B5E0AB2EA1E19A2EF3E0BF2EE7
:107E6000A2D0813461F49FD0082FAFD0023811F036
:107E7000013811F484E001C083E08DD089C08234E0
:107E800011F484E103C0853419F485E0A6D080C0E4
:107E9000853579F488D0E82EFF2485D0082F10E0AE
:107EA000102F00270E291F29000F111F8ED06801E7
:107EB0006FC0863521F484E090D080E0DECF843638
:107EC00009F040C070D06FD0082F6DD080E0C81688
:107ED00080E7D80618F4F601B7BEE895C0E0D1E017
:107EE00062D089930C17E1F7F0E0CF16F0E7DF06D8
:107EF00018F0F601B7BEE89568D007B600FCFDCFD4
:107F0000A601A0E0B1E02C9130E011968C91119780
:107F100090E0982F8827822B932B1296FA010C0160
:107F200087BEE89511244E5F5F4FF1E0A038BF0790
:107F300051F7F601A7BEE89507B600FCFDCF97BE46
:107F4000E89526C08437B1F42ED02DD0F82E2BD052
:107F50003CD0F601EF2C8F010F5F1F4F84911BD097
:107F6000EA94F801C1F70894C11CD11CFA94CF0C13
:107F7000D11C0EC0853739F428D08EE10CD085E9AC
:107F80000AD08FE07ACF813511F488E018D01DD067
:107F900080E101D065CF982F8091C00085FFFCCF94
:107FA0009093C60008958091C00087FFFCCF809118
:107FB000C00084FD01C0A8958091C6000895E0E648
:107FC000F0E098E1908380830895EDDF803219F02E
:107FD00088E0F5DFFFCF84E1DECF1F93182FE3DFCA
:107FE0001150E9F7F2DF1F91089580E0E8DFEE27F6
:047FF000FF270994CA
:027FFE00040479
:0400000300007E007B
:00000001FF
